:030000000208AD46
:0C08AD00787FE4F6D8FD7581460208F45F
:100AC60020200900000000000000000000000000D7
:100AD6000000000000000000000000000000000010
:060AE60000000001080001
:1009E900120BA7120B4BC3E50864809491500F7B3F
:1009F900007A0079097D017F01120AED80E87B0008
:100A09007A0079197D017F02120AEDD3E508648025
:090A190094A040D2E4F50880CD60
:0300230002093996
:10093900C0E0C0F0C083C082C0D075D000C000C084
:1009490001C002C003C004C005C006C00730983BFF
:10095900859946C298C3E546648094E1401FD3E572
:1009690046648094FA5016E54624E0FF120BDEE552
:100979004624E0FF74092508F8A607800CAF461243
:0B0989000BDE74092508F8A6460508DF
:10099400D007D006D005D004D003D002D001D000B7
:0B09A400D0D0D082D083D0F0D0E03261
:060BBB00C2A58F80D2A745
:080BC1007F027EEFDEFEDFFC87
:010BC9002209
:0A0BCA00C2A6120BBBC2A7020BC1AA
:100B1000CFCDCFCECCCE1208587C007D0A1208581B
:040B2000ED2430FF91
:0A0B2400D2A6120BBBC2A7020BC140
:100B6600AE07BE0104ED148006BE0209ED243F4423
:060B760080FF120BCA22F1
:100BA7007F38120BCA7F0C120BCA7F06120BCA7F43
:040BB70001020BCA62
:0A0BD400AC03120B66AF04020B2401
:060AED008B438A44894599
:100AF300120B66E4FDAB43AA44A9458D82758300BE
:0C0B0300120819FF6006120B240D80E997
:010B0F0022C3
:0C0A93007F0AEA24FFFDE434FFFC7E0033
:080A9F008E3F8F408C418D4217
:100AA7007F017E00E4FBEBC39542E5416480F87467
:0E0AB7008098500AAC3FAD401208460B80E814
:010AC500220E
:040B2E008A328B3349
:100B3200120B66AA34EAD39400400D120A93AC3227
:080B4200AD33120B101A80ED17
:010B4A002288
:1009AF00120B66C3EA64809480400B7F2B120B24DA
:1009BF008A2E8B2F800E7F2D120B24C3E49BF52FD5
:1009CF00E49AF52EAA2DEAD39400400D120A93ACA7
:0909DF002EAD2F120B101A80ED51
:0109E80022EC
:040A22008A378B384C
:100A2600120B66AA39EAD3940040297F10120A9560
:100A3600AC37AD38CFCDCFCECCCE120858EF540F51
:100A4600FEC3940AEE5004243080022437FF120BB2
:040A5600241A80D10D
:010A5A002279
:040A5B008A3C8B3D09
:100A5F00120B66AA3EEAD394004028EA24FFFDE475
:100A6F0034FFFC7F027E00120A9FAC3CAD3DCFCD20
:100A7F00CFCECCCE120858EF54012430FF120B24E6
:030A8F001A80D2F8
:010A92002241
:100B9200EF1FAC0670011E4C600A7D027CEFDCFE8A
:040BA200DDFC80EC0A
:010BA600222C
:100B4B0075985043878053890F438920758BF375B4
:0B0B5B008DF3C2ABD28ED2AFD2AC2221
:080BDE008F993099FDC29922A4
:100B7C001208006010F5993099FDC299740129F999
:060B8C00E43AFA80EB22BE
:1008B9000209E9E493A3F8E493A34003F68001F263
:1008C90008DFF48029E493A3F85407240CC8C33340
:1008D900C4540F4420C8834004F456800146F6DF0F
:1008E900E4800B0102040810204080900AC6E47ECF
:1008F900019360BCA3FF543F30E509541FFEE49304
:10090900A360010ECF54C025E060A840B8E493A3CA
:10091900FAE493A3F8E493A3C8C582C8CAC583CAF5
:10092900F0A3C8C582C8CAC583CADFE9DEE780BEAD
:010AEC000009
:10080000BB010689828A83E0225002E722BBFE02F6
:09081000E32289828A83E4932229
:10081900BB010CE58229F582E5833AF583E0225094
:1008290006E92582F8E622BBFE06E92582F8E222DE
:0D083900E58229F582E5833AF583E49322F8
:10084600EF8DF0A4A8F0CF8CF0A428CE8DF0A42EC6
:02085600FE2280
:10085800BC000BBE0029EF8DF084FFADF022E4CC84
:10086800F875F008EF2FFFEE33FEEC33FCEE9DEC4D
:10087800984005FCEE9DFE0FD5F0E9E4CEFD22ED93
:10088800F8F5F0EE8420D21CFEADF075F008EF2FDD
:10089800FFED33FD4007985006D5F0F222C398FDCE
:0508A8000FD5F0EA226B
:00000001FF
