:1009AC00090AF9A4B0999282F88098021300000207
:0709BC00150008020800000D
:0B09DA00D288D2A8D28AD2AAD2AF22C3
:0300030002088C64
:10088C00C0E0C0F0C083C082C0D075D000C000C032
:10089C0001C002C003C004C005C006C00720B216C8
:1008AC007F0A7E001209C430B2FD7508007509017B
:1008BC00751300751400D007D006D005D004D003F2
:1008CC00D002D001D000D0D0D082D083D0F0D0E0F4
:0108DC0032E9
:030013000208DD03
:1008DD00C0E0C0F0C083C082C0D075D000C000C0E1
:1008ED0001C002C003C004C005C006C00720B31676
:1008FD007F0A7E001209C430B3FD75080075090228
:10090D00751500751608D007D006D005D004D00394
:10091D00D002D001D000D0D0D082D083D0F0D0E0A2
:01092D003297
:10092E00E50964014508702A740A2514F8E6F59065
:10093E000514E51470020513D39408E5136480942E
:10094E008040067513007514087F2C7E011209C4B1
:03095E0080CE2226
:10096100E509640245087027740A2516F8E6F59032
:10097100E516151670021515C3E5156480948050AF
:1009810005E4F515F5167F2C7E011209C480D122EC
:100991001209DAE50964014508700312092EE50917
:0B09A1006402450870ED12096180E857
:1009C400EF1FAC0670011E4C600B007D027CC7DC7F
:0509D400FEDDFC80EBDC
:0109D90022FB
:03000000020800F3
:0C080000787FE4F6D8FD758116020847E9
:10080C00020991E493A3F8E493A34003F68001F268
:10081C0008DFF48029E493A3F85407240CC8C333ED
:10082C00C4540F4420C8834004F456800146F6DFBC
:10083C00E4800B01020408102040809009ACE47E97
:10084C00019360BCA3FF543F30E509541FFEE493B1
:10085C00A360010ECF54C025E060A840B8E493A378
:10086C00FAE493A3F8E493A3C8C582C8CAC583CAA3
:10087C00F0A3C8C582C8CAC583CADFE9DEE780BE5B
:0109C3000033
:00000001FF
