:03000000020B23CD
:0C0B2300787FE4F6D8FD7581250208ED0E
:040B4300506F74007B
:1008ED00120AEC120AAA7F9C1208948F237BFF7ABE
:1008FD000B79437D017F01120A4CE523FB7A0075CC
:10090D000C037D017F02120A8DE525C39523500E40
:10091D008525227F0A7E00120AD7052580EB8523C7
:10092D0025E525D3940040BE8525227F0A7E001241
:06093D000AD7152580EB2E
:03000B00020A21C5
:100A2100C0E0C0F0C0D0758A9C758CFF0524E52418
:100A310075F0FF8485F024E524C395225004D2A1EA
:0B0A41008002C2A1D0D0D0F0D0E03283
:100AD700EF1FAC0670011E4C600A7D027CEFDCFE46
:040AE700DDFC80ECC6
:010AEB0022E8
:060B1400C2A58F80D2A7EC
:080B1A007F027EEFDEFEDFFC2E
:010B220022B0
:0A0B2F00C2A6120B14C2A7020B1A93
:100A6F00CFCDCFCECCCE12083F7C007D0A12083FEF
:040A7F00ED2430FF33
:0A0A8300D2A6120B14C2A7020B1A30
:100AC100AE07BE0104ED148006BE0209ED243F44C9
:060AD10080FF120B2F2232
:100AEC007F38120B2F7F0C120B2F7F06120B2F7FD0
:040AFC0001020B2FB9
:0A0B3900AC03120AC1AF04020A83E4
:060A4C008B088A09890AEB
:100A5200120AC1E4FDAB08AA09A90A8D82758300B6
:0C0A6200120800FF6006120A830D80E9F4
:010A6E002265
:0C09EE007F0AEA24FFFDE434FFFC7E00D9
:0809FA008E0D8F0E8C0F8D1085
:100A02007F017E00E4FBEBC39510E50F6480F87470
:0E0A12008098500AAC0DAD0E12082D0B80E836
:010A200022B3
:040A8D008A0A8B0B3B
:100A9100120AC1AA0CEAD39400400D1209EEAC0A65
:080AA100AD0B120A6F1A80ED83
:010AA900222A
:10094300120AC1C3EA64809480400B7F2B120A838E
:100953008A168B17800E7F2D120A83C3E49BF5172B
:10096300E49AF516AA15EAD39400400D1209EEACE9
:0909730016AD17120A6F1A80ED8F
:01097C002258
:04097D008A1A8B1B2C
:10098100120AC1AA1CEAD3940040297F101209F06F
:10099100AC1AAD1BCFCDCFCECCCE12083FEF540F4A
:1009A100FEC3940AEE5004243080022437FF120A59
:0409B100831A80D154
:0109B500221F
:0409B6008A1F8B20E9
:1009BA00120AC1AA21EAD394004028EA24FFFDE4DE
:1009CA0034FFFC7F027E001209FAAC1FAD20CFCDA6
:1009DA00CFCECCCE12083FEF54012430FF120A8347
:0309EA001A80D29E
:0109ED0022E7
:02089400AD07AE
:10089600E4F508F509C290C291FB7E007480A803B6
:1008A600088006CEA2E713CE13D8F8FFEDF582EF47
:1008B600558224FF9292D290C2900BBB08DCE4FBD7
:1008C600D290C2903093147E80E4A803088005CEAF
:1008D600C313CE13D8F94209EE42080BBB10E1D27E
:0608E60091E508FF7E0011
:0108EC0022E9
:100AAA00D2A9D2AFC2B95389F0438901758A9C751C
:070ABA008CFFC28DD28C22DB
:100B0000D2ABD2AFC2BB53890F758B20758DD1C2CA
:040B10008FD28E22D0
:10080000BB010CE58229F582E5833AF583E02250AD
:1008100006E92582F8E622BBFE06E92582F8E222F7
:0D082000E58229F582E5833AF583E4932211
:10082D00EF8DF0A4A8F0CF8CF0A428CE8DF0A42EDF
:02083D00FE2299
:10083F00BC000BBE0029EF8DF084FFADF022E4CC9D
:10084F00F875F008EF2FFFEE33FEEC33FCEE9DEC66
:10085F00984005FCEE9DFE0FD5F0E9E4CEFD22EDAC
:10086F00F8F5F0EE8420D21CFEADF075F008EF2FF6
:10087F00FFED33FD4007985006D5F0F222C398FDE7
:05088F000FD5F0EA2284
:00000001FF
