:030000000209BD35
:0C09BD00787FE4F6D8FD758116020A046C
:0F0ADF000908F9A4B0999282F8809802110000DA
:090A7600120A9E120ACB75A007BA
:100A7F001208008E138F14E514451360F31208004B
:0D0A8F008E138F14E514451370FA75800165
:020A9C0080E1F7
:03001B00020A498D
:100A4900C0E0C0D0758B18758DFC0512E5127002D7
:100A59000511640545117010F511F51215A0E5A0F1
:0D0A6900C39400500375A007D0D0D0E03238
:100A9E00D2A9D2AFC2B95389F0438901758A1875AC
:070AAE008CFCC28DD28C22EA
:10080000E4F515F5167590FFC2902094167F0AFE48
:10081000120AB53094FD7F0A7E00120AB5751500E4
:100820007516012095177F0A7E00120AB53095FDD6
:100830007F0A7E00120AB5751500751602209617FC
:100840007F0A7E00120AB53096FD7F0A7E00120AEA
:10085000B57515007516032097177F0A7E00120ADA
:10086000B53097FD7F0A7E00120AB5751500751622
:10087000047590FFC2912094177F0A7E00120AB57A
:100880003094FD7F0A7E00120AB5751500751605B5
:100890002095177F0A7E00120AB53095FD7F0A7EEB
:1008A00000120AB57515007516062096177F0A7E88
:1008B00000120AB53096FD7F0A7E00120AB5751542
:1008C000007516072097177F0A7E00120AB5309729
:1008D000FD7F0A7E00120AB5751500751608759021
:1008E000FFC2922094177F0A7E00120AB53094FD51
:1008F0007F0A7E00120AB575150075160920951736
:100900007F0A7E00120AB53095FD7F0A7E00120A2A
:10091000B575150075160A2096177F0A7E00120A13
:10092000B53096FD7F0A7E00120AB5751500751662
:100930000B2097177F0A7E00120AB53097FD7F0AB9
:100940007E00120AB575150075160C7590FFC293DE
:100950002094177F0A7E00120AB53094FD7F0A7E2C
:1009600000120AB575150075160D2095177F0A7EC1
:1009700000120AB53095FD7F0A7E00120AB5751582
:100980000075160E2096177F0A7E00120AB5309663
:10099000FD7F0A7E00120AB575150075160F2097A7
:1009A000177F0A7E00120AB53097FD7F0A7E00127B
:0C09B0000AB5751500751610AE15AF16CF
:0109BC002218
:100AB500EF1FAC0670011E4C600B007D027CC7DC8D
:050AC500FEDDFC80EBEA
:010ACA002209
:100ACB00D2ABD2AFC2BB53890F758B20758DD1C200
:040ADB008FD28E2206
:1009C900020A76E493A3F8E493A34003F68001F2C4
:1009D90008DFF48029E493A3F85407240CC8C3332F
:1009E900C4540F4420C8834004F456800146F6DFFE
:1009F900E4800B0102040810204080900ADFE47EA5
:100A0900019360BCA3FF543F30E509541FFEE493F2
:100A1900A360010ECF54C025E060A840B8E493A3B9
:100A2900FAE493A3F8E493A3C8C582C8CAC583CAE4
:100A3900F0A3C8C582C8CAC583CADFE9DEE780BE9C
:010AEE000007
:00000001FF
