:030000000209A54D
:0C09A500787FE4F6D8FD7581290209EC8A
:100AE2000224000002080000100A3F065B4F666DF8
:100AF2007D077F6F777C395E7971081A00000000EC
:080B02000000000002220000C7
:090A3100120B38E4F5A075803FBA
:090A3A001208008F26E52660F782
:100A4300752700752807AF2874192FF8E6FE741A66
:100A53002FF8A606E528152870021527E528B4FF08
:100A6300E5E527B4FFE0740A2526F8E6F51A05093B
:100A7300E50970020508D39407E508648094804073
:060A8300B6E4F508F509D8
:020A890080AF3C
:03001B00020A8B4B
:100A8B00C0E0C0D075D000C000758B18758DFC050B
:100A9B0023E52370020522640545227033F522F508
:100AAB002315A0F580741A2525F8E6F5800525E5B4
:100ABB002570020524D39407E524648094804006B6
:100ACB00752400752500E5A0C39400500375A0079D
:070ADB00D000D0D0D0E032C2
:100B0B00D2A9D2AFC2B95389F0438901758A18753E
:070B1B008CFCC28DD28C227C
:10080000E4F5297590FFC2937F05FE120B22209715
:10081000147F147E00120B223097FD7F147E00128D
:100820000B227529012096147F147E00120B2230B2
:1008300096FD7F147E00120B227529052095147FEA
:10084000147E00120B223095FD7F147E00120B22C5
:100850007529092094147F147E00120B223094FD18
:100860007F147E00120B2275290D7590FFC2927FB6
:10087000057E00120B222097147F147E00120B229B
:100880003097FD7F147E00120B22752902209614EA
:100890007F147E00120B223096FD7F147E00120B17
:1008A000227529062095147F147E00120B223095A4
:1008B000FD7F147E00120B2275290A2094147F14E8
:1008C0007E00120B223094FD7F147E00120B2275E5
:1008D000290E7590FFC2917F147E00120B22209783
:1008E000147F147E00120B223097FD7F147E0012BD
:1008F0000B227529032096147F147E00120B2230E0
:1009000096FD7F147E00120B227529072095147F17
:10091000147E00120B223095FD7F147E00120B22F4
:1009200075290B2094147F147E00120B223094FD45
:100930007F147E00120B2275290F7590FFC2907FE5
:10094000147E00120B222097147F147E00120B22BB
:100950003097FD7F147E00120B2275290420961417
:100960007F147E00120B223096FD7F147E00120B46
:10097000227529082095147F147E00120B223095D1
:10098000FD7F147E00120B2275290C2094147F1415
:100990007E00120B223094FD7F147E00120B227514
:0409A0002910AF2942
:0109A4002230
:100B2200EF1FAC0670011E4C600B007D027CC7DC1F
:050B3200FEDDFC80EB7C
:010B3700229B
:100B3800D2ABD2AFC2BB53890F758B20758DD1C292
:040B48008FD28E2298
:1009B100020A31E493A3F8E493A34003F68001F221
:1009C10008DFF48029E493A3F85407240CC8C33347
:1009D100C4540F4420C8834004F456800146F6DF16
:1009E100E4800B0102040810204080900AE2E47EBA
:1009F100019360BCA3FF543F30E509541FFEE4930B
:100A0100A360010ECF54C025E060A840B8E493A3D1
:100A1100FAE493A3F8E493A3C8C582C8CAC583CAFC
:100A2100F0A3C8C582C8CAC583CADFE9DEE780BEB4
:010B0A0000EA
:00000001FF
