:030000000209D919
:0C09D900787FE4F6D8FD75812A020A2020
:100BD5000224000010083F065B4F666D7D077F6F9E
:100BE500777C395E7971081800000000000000006C
:080BF5000220000002220000B2
:060B9600120C2BE4F5A097
:090B9C001208008F26E52660F71F
:100BA500752700752807AF2874172FF8E6FE741807
:100BB5002FF8A606E528152870021527E528B4FFA5
:0E0BC500E5E527B4FFE074072526F8E6F518ED
:020BD30080C7D9
:03000B00020A6581
:100A6500C0E0C0F0C0D075D000C000C004C005C053
:100A750006C007758A18758CFC0521E521700205ED
:100A850020AE20FF7C007DC8120B41ED4C7002B2F8
:100A9500B0AE20AF217C017D2C120B41ED4C7002D4
:100AA500B2B1AE20AF217C017DF4120B41ED4C704B
:100AB50002B2B2AE20AF217C037DE8120B41ED4CB2
:100AC5007002B2B3E521B4B80BE520B40B0675206E
:100AD50000752100D007D006D005D004D000D0D0B5
:050AE500D0F0D0E0326A
:03001B00020AEAEC
:100AEA00C0E0C0D075D000C000758B18758DFC05AC
:100AFA0023E52370020522640545227033F522F5A9
:100B0A002315A0F58074182525F8E6F5800525E556
:100B1A002570020524D39407E52464809480400656
:100B2A00752400752500E5A0C39400500375A0073D
:070B3A00D000D0D0D0E03262
:100BFE00D2A9D2AFC2B95389F0438901758A18754B
:070C0E008CFCC28DD28C2288
:10080000E4F529F52A7590FFC2977F05FE120C15B5
:100810002093177F147E00120C153093FD7F147EF9
:1008200000120C15752900752A102092177F147E6E
:1008300000120C153092FD7F147E00120C157529E4
:1008400000752A0C2091177F147E00120C15309130
:10085000FD7F147E00120C15752900752A08209062
:10086000177F147E00120C153090FD7F147E00124D
:100870000C15752900752A047590FFC2967F057EB8
:1008800000120C152093177F147E00120C15309364
:10089000FD7F147E00120C15752900752A0F209219
:1008A000177F147E00120C153092FD7F147E00120B
:1008B0000C15752900752A0B2091177F147E0012E4
:1008C0000C153091FD7F147E00120C1575290075F2
:1008D0002A072090177F147E00120C153090FD7FA0
:1008E000147E00120C15752900752A037590FFC23D
:1008F000957F147E00120C152093177F147E001232
:100900000C153093FD7F147E00120C1575290075AF
:100910002A0E2092177F147E00120C153092FD7F54
:10092000147E00120C15752900752A0A2091177F74
:10093000147E00120C153091FD7F147E00120C15F0
:10094000752900752A062090177F147E00120C1559
:100950003090FD7F147E00120C15752900752A0257
:100960007590FFC2947F147E00120C152093177FA0
:10097000147E00120C153093FD7F147E00120C15AE
:10098000752900752A0D2092177F147E00120C1510
:100990003092FD7F147E00120C15752900752A090E
:1009A0002091177F147E00120C153091FD7F147E6C
:1009B00000120C15752900752A052090177F147EEA
:1009C00000120C153090FD7F147E00120C15752955
:0809D00000752A01AE29AF2ACF
:0109D80022FC
:100C1500EF1FAC0670011E4C600B007D027CC7DC2B
:050C2500FEDDFC80EB88
:010C2A0022A7
:100C2B00D2ABD2AFC2BB53890F758B20758DD1C29E
:040C3B008FD28E22A4
:1009E500020B96E493A3F8E493A34003F68001F287
:1009F50008DFF48029E493A3F85407240CC8C33313
:100A0500C4540F4420C8834004F456800146F6DFE1
:100A1500E4800B0102040810204080900BD5E47E91
:100A2500019360BCA3FF543F30E509541FFEE493D6
:100A3500A360010ECF54C025E060A840B8E493A39D
:100A4500FAE493A3F8E493A3C8C582C8CAC583CAC8
:100A5500F0A3C8C582C8CAC583CADFE9DEE780BE80
:010BFD0000F7
:100B4100BC000BBE0029EF8DF084FFADF022E4CC98
:100B5100F875F008EF2FFFEE33FEEC33FCEE9DEC61
:100B6100984005FCEE9DFE0FD5F0E9E4CEFD22EDA7
:100B7100F8F5F0EE8420D21CFEADF075F008EF2FF1
:100B8100FFED33FD4007985006D5F0F222C398FDE2
:050B91000FD5F0EA227F
:00000001FF
