:03000000020AE908
:0C0AE900787FE4F6D8FD758125020894A2
:0D0ADC0047523100506F74004E54433100FA
:10089400120AB97BFF7A0A79DC7D017F01120A30E2
:1008A4007FAC1208F9AA06AB07750C037D017F0221
:1008B400120A717BFF7A0A79E07D057F01120A3002
:1008C4007F9C1208F9AA06AB07750C037D057F020D
:1008D400120A717BFF7A0A79E47D097F01120A30DA
:1008E4007FDC1208F9AA06AB07750C037D097F02A9
:0508F400120A71809E54
:100AA400EF1FAC0670011E4C600A7D027CEFDCFE79
:040AB400DDFC80ECF9
:010AB800221B
:060ACD00C2A58F80D2A734
:080AD3007F027EEFDEFEDFFC76
:010ADB0022F8
:0A0AF500C2A6120ACDC2A7020AD35E
:100A5300CFCDCFCECCCE12083F7C007D0A12083F0B
:040A6300ED2430FF4F
:0A0A6700D2A6120ACDC2A7020AD3DC
:100A8E00AE07BE0104ED148006BE0209ED243F44FC
:060A9E0080FF120AF522A0
:100AB9007F38120AF57F0C120AF57F06120AF57FB4
:040AC90001020AF527
:0A0AFF00AC03120A8EAF04020A676E
:060A30008B088A09890A07
:100A3600120A8EE4FDAB08AA09A90A8D8275830005
:0C0A4600120800FF6006120A670D80E92C
:010A52002281
:0C09FD007F0AEA24FFFDE434FFFC7E00CA
:080A09008E0D8F0E8C0F8D1075
:100A11007F017E00E4FBEBC39510E50F6480F87461
:0E0A21008098500AAC0DAD0E12082D0B80E827
:010A2F0022A4
:040A71008A0A8B0B57
:100A7500120A8EAA0CEAD39400400D1209FDAC0AA5
:080A8500AD0B120A531A80EDBB
:010A8D002246
:10095200120A8EC3EA64809480400B7F2B120A67CE
:100962008A168B17800E7F2D120A67C3E49BF51738
:10097200E49AF516AA15EAD39400400D1209FDACCB
:0909820016AD17120A531A80ED9C
:01098B002249
:04098C008A1A8B1B1D
:10099000120A8EAA1CEAD3940040297F101209FF84
:1009A000AC1AAD1BCFCDCFCECCCE12083FEF540F3B
:1009B000FEC3940AEE5004243080022437FF120A4A
:0409C000671A80D161
:0109C4002210
:0409C5008A1F8B20DA
:1009C900120A8EAA21EAD394004028EA24FFFDE402
:1009D90034FFFC7F027E00120A09AC1FAD20CFCD87
:1009E900CFCECCCE12083FEF54012430FF120A6754
:0309F9001A80D28F
:0109FC0022D8
:0208F900AD0749
:1008FB00E4F508F509C290C291FB7E007480A80351
:10090B00088006CEA2E713CE13D8F8FFEDF582EFE1
:10091B00558224FF9292D290C2900BBB08DCE4FB71
:10092B00D290C2903093147E80E4A803088005CE49
:10093B00C313CE13D8F94209EE42080BBB10E1D218
:06094B0091E508FF7E00AB
:010951002283
:10080000BB010CE58229F582E5833AF583E02250AD
:1008100006E92582F8E622BBFE06E92582F8E222F7
:0D082000E58229F582E5833AF583E4932211
:10082D00EF8DF0A4A8F0CF8CF0A428CE8DF0A42EDF
:02083D00FE2299
:10083F00BC000BBE0029EF8DF084FFADF022E4CC9D
:10084F00F875F008EF2FFFEE33FEEC33FCEE9DEC66
:10085F00984005FCEE9DFE0FD5F0E9E4CEFD22EDAC
:10086F00F8F5F0EE8420D21CFEADF075F008EF2FF6
:10087F00FFED33FD4007985006D5F0F222C398FDE7
:05088F000FD5F0EA2284
:00000001FF
